{
  "_format": "hh-sol-artifact-1",
  "contractName": "Crowdfunding",
  "sourceName": "contracts/Crowdfunding.sol",
  "abi": [
    {
      "anonymous": false,
      "inputs": [
        {
          "indexed": true,
          "internalType": "uint256",
          "name": "campaignId",
          "type": "uint256"
        }
      ],
      "name": "CampaignCancelled",
      "type": "event"
    },
    {
      "anonymous": false,
      "inputs": [
        {
          "indexed": true,
          "internalType": "uint256",
          "name": "campaignId",
          "type": "uint256"
        },
        {
          "indexed": true,
          "internalType": "address",
          "name": "creator",
          "type": "address"
        },
        {
          "indexed": false,
          "internalType": "string",
          "name": "title",
          "type": "string"
        },
        {
          "indexed": false,
          "internalType": "uint256",
          "name": "goal",
          "type": "uint256"
        },
        {
          "indexed": false,
          "internalType": "uint256",
          "name": "deadline",
          "type": "uint256"
        }
      ],
      "name": "CampaignCreated",
      "type": "event"
    },
    {
      "anonymous": false,
      "inputs": [
        {
          "indexed": true,
          "internalType": "uint256",
          "name": "campaignId",
          "type": "uint256"
        },
        {
          "indexed": true,
          "internalType": "address",
          "name": "contributor",
          "type": "address"
        },
        {
          "indexed": false,
          "internalType": "uint256",
          "name": "amount",
          "type": "uint256"
        }
      ],
      "name": "ContributionMade",
      "type": "event"
    },
    {
      "anonymous": false,
      "inputs": [
        {
          "indexed": true,
          "internalType": "uint256",
          "name": "campaignId",
          "type": "uint256"
        },
        {
          "indexed": true,
          "internalType": "address",
          "name": "creator",
          "type": "address"
        },
        {
          "indexed": false,
          "internalType": "uint256",
          "name": "amount",
          "type": "uint256"
        }
      ],
      "name": "FundsClaimed",
      "type": "event"
    },
    {
      "anonymous": false,
      "inputs": [
        {
          "indexed": true,
          "internalType": "uint256",
          "name": "campaignId",
          "type": "uint256"
        },
        {
          "indexed": true,
          "internalType": "address",
          "name": "contributor",
          "type": "address"
        },
        {
          "indexed": false,
          "internalType": "uint256",
          "name": "amount",
          "type": "uint256"
        }
      ],
      "name": "RefundIssued",
      "type": "event"
    },
    {
      "inputs": [],
      "name": "campaignCount",
      "outputs": [
        {
          "internalType": "uint256",
          "name": "",
          "type": "uint256"
        }
      ],
      "stateMutability": "view",
      "type": "function"
    },
    {
      "inputs": [
        {
          "internalType": "uint256",
          "name": "",
          "type": "uint256"
        }
      ],
      "name": "campaigns",
      "outputs": [
        {
          "internalType": "address",
          "name": "creator",
          "type": "address"
        },
        {
          "internalType": "string",
          "name": "title",
          "type": "string"
        },
        {
          "internalType": "uint256",
          "name": "goal",
          "type": "uint256"
        },
        {
          "internalType": "uint256",
          "name": "deadline",
          "type": "uint256"
        },
        {
          "internalType": "uint256",
          "name": "totalRaised",
          "type": "uint256"
        },
        {
          "internalType": "bool",
          "name": "claimed",
          "type": "bool"
        },
        {
          "internalType": "bool",
          "name": "cancelled",
          "type": "bool"
        }
      ],
      "stateMutability": "view",
      "type": "function"
    },
    {
      "inputs": [
        {
          "internalType": "uint256",
          "name": "_campaignId",
          "type": "uint256"
        }
      ],
      "name": "cancelCampaign",
      "outputs": [],
      "stateMutability": "nonpayable",
      "type": "function"
    },
    {
      "inputs": [
        {
          "internalType": "uint256",
          "name": "_campaignId",
          "type": "uint256"
        }
      ],
      "name": "claimFunds",
      "outputs": [],
      "stateMutability": "nonpayable",
      "type": "function"
    },
    {
      "inputs": [
        {
          "internalType": "uint256",
          "name": "_campaignId",
          "type": "uint256"
        }
      ],
      "name": "contribute",
      "outputs": [],
      "stateMutability": "payable",
      "type": "function"
    },
    {
      "inputs": [
        {
          "internalType": "uint256",
          "name": "",
          "type": "uint256"
        },
        {
          "internalType": "address",
          "name": "",
          "type": "address"
        }
      ],
      "name": "contributions",
      "outputs": [
        {
          "internalType": "uint256",
          "name": "",
          "type": "uint256"
        }
      ],
      "stateMutability": "view",
      "type": "function"
    },
    {
      "inputs": [
        {
          "internalType": "string",
          "name": "_title",
          "type": "string"
        },
        {
          "internalType": "uint256",
          "name": "_goal",
          "type": "uint256"
        },
        {
          "internalType": "uint256",
          "name": "_durationInSeconds",
          "type": "uint256"
        }
      ],
      "name": "createCampaign",
      "outputs": [],
      "stateMutability": "nonpayable",
      "type": "function"
    },
    {
      "inputs": [],
      "name": "getCampaignCount",
      "outputs": [
        {
          "internalType": "uint256",
          "name": "",
          "type": "uint256"
        }
      ],
      "stateMutability": "view",
      "type": "function"
    },
    {
      "inputs": [
        {
          "internalType": "uint256",
          "name": "_campaignId",
          "type": "uint256"
        },
        {
          "internalType": "address",
          "name": "_contributor",
          "type": "address"
        }
      ],
      "name": "getContribution",
      "outputs": [
        {
          "internalType": "uint256",
          "name": "",
          "type": "uint256"
        }
      ],
      "stateMutability": "view",
      "type": "function"
    },
    {
      "inputs": [
        {
          "internalType": "uint256",
          "name": "_campaignId",
          "type": "uint256"
        }
      ],
      "name": "isCampaignActive",
      "outputs": [
        {
          "internalType": "bool",
          "name": "",
          "type": "bool"
        }
      ],
      "stateMutability": "view",
      "type": "function"
    },
    {
      "inputs": [
        {
          "internalType": "uint256",
          "name": "_campaignId",
          "type": "uint256"
        }
      ],
      "name": "refund",
      "outputs": [],
      "stateMutability": "nonpayable",
      "type": "function"
    }
  ],
  "bytecode": "0x608060405234801561001057600080fd5b5061131e806100206000396000f3fe60806040526004361061009c5760003560e01c806345598b4a1161006457806345598b4a146101855780636caa9218146101a55780637274e30d146101ba578063c1cbbca7146101d0578063e081dbf9146101e3578063e1e330091461020357600080fd5b8063141961bc146100a15780631b55e338146100dd578063278ecde1146100ff5780633020580b1461011f5780633d891f591461013f575b600080fd5b3480156100ad57600080fd5b506100c16100bc366004610eff565b610233565b6040516100d49796959493929190610f5e565b60405180910390f35b3480156100e957600080fd5b506100fd6100f8366004610eff565b610308565b005b34801561010b57600080fd5b506100fd61011a366004610eff565b6105a8565b34801561012b57600080fd5b506100fd61013a366004610fc6565b6107b5565b34801561014b57600080fd5b5061017761015a36600461108a565b600260209081526000928352604080842090915290825290205481565b6040519081526020016100d4565b34801561019157600080fd5b506100fd6101a0366004610eff565b6109dd565b3480156101b157600080fd5b50600054610177565b3480156101c657600080fd5b5061017760005481565b6100fd6101de366004610eff565b610c08565b3480156101ef57600080fd5b506101776101fe36600461108a565b610e6e565b34801561020f57600080fd5b5061022361021e366004610eff565b610e98565b60405190151581526020016100d4565b6001602081905260009182526040909120805491810180546001600160a01b0390931692610260906110c6565b80601f016020809104026020016040519081016040528092919081815260200182805461028c906110c6565b80156102d95780601f106102ae576101008083540402835291602001916102d9565b820191906000526020600020905b8154815290600101906020018083116102bc57829003601f168201915b505050506002830154600384015460048501546005909501549394919390925060ff8082169161010090041687565b8060005481106103335760405162461bcd60e51b815260040161032a906110fa565b60405180910390fd5b600082815260016020526040902080546001600160a01b0316331461039a5760405162461bcd60e51b815260206004820152601c60248201527f4f6e6c792063726561746f722063616e20636c61696d2066756e647300000000604482015260640161032a565b80600301544210156103be5760405162461bcd60e51b815260040161032a90611131565b6005810154610100900460ff16156104185760405162461bcd60e51b815260206004820152601b60248201527f43616d706169676e20686173206265656e2063616e63656c6c65640000000000604482015260640161032a565b8060020154816004015410156104635760405162461bcd60e51b815260206004820152601060248201526f11dbd85b081b9bdd081c995858da195960821b604482015260640161032a565b600581015460ff16156104b05760405162461bcd60e51b8152602060048201526015602482015274119d5b991cc8185b1c9958591e4818db185a5b5959605a1b604482015260640161032a565b60058101805460ff19166001179055600481015481546040516000916001600160a01b03169083908381818185875af1925050503d8060008114610510576040519150601f19603f3d011682016040523d82523d6000602084013e610515565b606091505b505090508061055d5760405162461bcd60e51b81526020600482015260146024820152734661696c656420746f2073656e642066756e647360601b604482015260640161032a565b82546040518381526001600160a01b039091169086907fa4eb50103b0591feb0bc913f479d92af5eb7ea33e8c397b49bab52ce6af26cb5906020015b60405180910390a35050505050565b8060005481106105ca5760405162461bcd60e51b815260040161032a906110fa565b600082815260016020526040902060038101544210156105fc5760405162461bcd60e51b815260040161032a90611131565b80600201548160040154106106645760405162461bcd60e51b815260206004820152602860248201527f43616d706169676e207375636365656465642c206e6f20726566756e647320616044820152677661696c61626c6560c01b606482015260840161032a565b6000838152600260209081526040808320338452909152902054806106db5760405162461bcd60e51b815260206004820152602760248201527f4e6f20636f6e747269627574696f6e20666f756e6420666f722074686973206360448201526630b6b830b4b3b760c91b606482015260840161032a565b60008481526002602090815260408083203380855292528083208390555183908381818185875af1925050503d8060008114610733576040519150601f19603f3d011682016040523d82523d6000602084013e610738565b606091505b50509050806107815760405162461bcd60e51b815260206004820152601560248201527411985a5b1959081d1bc81cd95b99081c99599d5b99605a1b604482015260640161032a565b604051828152339086907f7a482fdeb6bc9a1376f597068a214a7a39472bb2eff1b8cad21ba04f49ddca1b90602001610599565b600082116108055760405162461bcd60e51b815260206004820152601e60248201527f476f616c206d7573742062652067726561746572207468616e207a65726f0000604482015260640161032a565b600081116108605760405162461bcd60e51b815260206004820152602260248201527f4475726174696f6e206d7573742062652067726561746572207468616e207a65604482015261726f60f01b606482015260840161032a565b60008351116108a95760405162461bcd60e51b81526020600482015260156024820152745469746c652063616e6e6f7420626520656d70747960581b604482015260640161032a565b60006108b58242611188565b6040805160e08101825233815260208082018881528284018890526060830185905260006080840181905260a0840181905260c084018190528054815260019283905293909320825181546001600160a01b0319166001600160a01b03909116178155925193945090929082019061092d90826111ea565b506040828101516002830155606083015160038301556080830151600483015560a08301516005909201805460c09094015115156101000261ff00199315159390931661ffff19909416939093179190911790915560005490513391907fdc26653af5b99b2da33e2ad69ee6600d9aeccc82b034501db4338309615ca238906109bb908890889087906112aa565b60405180910390a36000805490806109d2836112cf565b919050555050505050565b8060005481106109ff5760405162461bcd60e51b815260040161032a906110fa565b600082815260016020526040902080546001600160a01b03163314610a665760405162461bcd60e51b815260206004820181905260248201527f4f6e6c792063726561746f722063616e2063616e63656c2063616d706169676e604482015260640161032a565b80600301544210610ab95760405162461bcd60e51b815260206004820152601c60248201527f43616d706169676e20646561646c696e65206861732070617373656400000000604482015260640161032a565b600481015415610b1d5760405162461bcd60e51b815260206004820152602960248201527f43616e6e6f742063616e63656c2063616d706169676e207769746820636f6e746044820152687269627574696f6e7360b81b606482015260840161032a565b6005810154610100900460ff1615610b775760405162461bcd60e51b815260206004820152601a60248201527f43616d706169676e20616c72656164792063616e63656c6c6564000000000000604482015260640161032a565b600581015460ff1615610bc75760405162461bcd60e51b815260206004820152601860248201527710d85b5c185a59db88185b1c9958591e4818db185a5b595960421b604482015260640161032a565b60058101805461ff00191661010017905560405183907f403b6718db13878ac16c27decb08f09d3a10f116c7c25af575ff5bfbc11ae9e690600090a2505050565b806000548110610c2a5760405162461bcd60e51b815260040161032a906110fa565b600082815260016020526040902060038101544210610c8b5760405162461bcd60e51b815260206004820152601c60248201527f43616d706169676e20646561646c696e65206861732070617373656400000000604482015260640161032a565b6005810154610100900460ff1615610ce55760405162461bcd60e51b815260206004820152601b60248201527f43616d706169676e20686173206265656e2063616e63656c6c65640000000000604482015260640161032a565b60003411610d445760405162461bcd60e51b815260206004820152602660248201527f436f6e747269627574696f6e206d7573742062652067726561746572207468616044820152656e207a65726f60d01b606482015260840161032a565b600581015460ff1615610d945760405162461bcd60e51b815260206004820152601860248201527710d85b5c185a59db88185b1c9958591e4818db185a5b595960421b604482015260640161032a565b8060020154816004015410610deb5760405162461bcd60e51b815260206004820152601d60248201527f43616d706169676e20676f616c20616c72656164792072656163686564000000604482015260640161032a565b34816004016000828254610dff9190611188565b9091555050600083815260026020908152604080832033845290915281208054349290610e2d908490611188565b9091555050604051348152339084907f0a4a91237423e0a1766a761c7cb029311d8b95d6b1b81db1b949a70c98b4e08e9060200160405180910390a3505050565b60008281526002602090815260408083206001600160a01b03851684529091529020545b92915050565b6000816000548110610ebc5760405162461bcd60e51b815260040161032a906110fa565b6000838152600160205260409020600381015442108015610ee4575080600201548160040154105b8015610ef55750600581015460ff16155b9250505b50919050565b600060208284031215610f1157600080fd5b5035919050565b6000815180845260005b81811015610f3e57602081850181015186830182015201610f22565b506000602082860101526020601f19601f83011685010191505092915050565b6001600160a01b038816815260e060208201819052600090610f8290830189610f18565b60408301979097525060608101949094526080840192909252151560a0830152151560c09091015292915050565b634e487b7160e01b600052604160045260246000fd5b600080600060608486031215610fdb57600080fd5b833567ffffffffffffffff80821115610ff357600080fd5b818601915086601f83011261100757600080fd5b81358181111561101957611019610fb0565b604051601f8201601f19908116603f0116810190838211818310171561104157611041610fb0565b8160405282815289602084870101111561105a57600080fd5b82602086016020830137600060208483010152809750505050505060208401359150604084013590509250925092565b6000806040838503121561109d57600080fd5b8235915060208301356001600160a01b03811681146110bb57600080fd5b809150509250929050565b600181811c908216806110da57607f821691505b602082108103610ef957634e487b7160e01b600052602260045260246000fd5b60208082526017908201527f43616d706169676e20646f6573206e6f74206578697374000000000000000000604082015260600190565b60208082526021908201527f43616d706169676e20646561646c696e65206e6f7420796574207265616368656040820152601960fa1b606082015260800190565b634e487b7160e01b600052601160045260246000fd5b80820180821115610e9257610e92611172565b601f8211156111e557600081815260208120601f850160051c810160208610156111c25750805b601f850160051c820191505b818110156111e1578281556001016111ce565b5050505b505050565b815167ffffffffffffffff81111561120457611204610fb0565b6112188161121284546110c6565b8461119b565b602080601f83116001811461124d57600084156112355750858301515b600019600386901b1c1916600185901b1785556111e1565b600085815260208120601f198616915b8281101561127c5788860151825594840194600190910190840161125d565b508582101561129a5787850151600019600388901b60f8161c191681555b5050505050600190811b01905550565b6060815260006112bd6060830186610f18565b60208301949094525060400152919050565b6000600182016112e1576112e1611172565b506001019056fea264697066735822122055e24ecdffdfeee48d548b4c4e399dce52af3650b1357c7957089337867586e764736f6c63430008140033",
  "linkReferences": {},
  "deployedLinkReferences": {}
}