{
  "_format": "hh-sol-artifact-1",
  "contractName": "Crowdfunding",
  "sourceName": "contracts/Crowdfunding.sol",
  "abi": [
    {
      "anonymous": false,
      "inputs": [
        {
          "indexed": true,
          "internalType": "uint256",
          "name": "campaignId",
          "type": "uint256"
        },
        {
          "indexed": true,
          "internalType": "address",
          "name": "creator",
          "type": "address"
        },
        {
          "indexed": false,
          "internalType": "string",
          "name": "title",
          "type": "string"
        },
        {
          "indexed": false,
          "internalType": "uint256",
          "name": "goal",
          "type": "uint256"
        },
        {
          "indexed": false,
          "internalType": "uint256",
          "name": "deadline",
          "type": "uint256"
        }
      ],
      "name": "CampaignCreated",
      "type": "event"
    },
    {
      "anonymous": false,
      "inputs": [
        {
          "indexed": true,
          "internalType": "uint256",
          "name": "campaignId",
          "type": "uint256"
        },
        {
          "indexed": true,
          "internalType": "address",
          "name": "contributor",
          "type": "address"
        },
        {
          "indexed": false,
          "internalType": "uint256",
          "name": "amount",
          "type": "uint256"
        }
      ],
      "name": "ContributionMade",
      "type": "event"
    },
    {
      "anonymous": false,
      "inputs": [
        {
          "indexed": true,
          "internalType": "uint256",
          "name": "campaignId",
          "type": "uint256"
        },
        {
          "indexed": true,
          "internalType": "address",
          "name": "creator",
          "type": "address"
        },
        {
          "indexed": false,
          "internalType": "uint256",
          "name": "amount",
          "type": "uint256"
        }
      ],
      "name": "FundsClaimed",
      "type": "event"
    },
    {
      "anonymous": false,
      "inputs": [
        {
          "indexed": true,
          "internalType": "uint256",
          "name": "campaignId",
          "type": "uint256"
        },
        {
          "indexed": true,
          "internalType": "address",
          "name": "contributor",
          "type": "address"
        },
        {
          "indexed": false,
          "internalType": "uint256",
          "name": "amount",
          "type": "uint256"
        }
      ],
      "name": "RefundIssued",
      "type": "event"
    },
    {
      "inputs": [],
      "name": "campaignCount",
      "outputs": [
        {
          "internalType": "uint256",
          "name": "",
          "type": "uint256"
        }
      ],
      "stateMutability": "view",
      "type": "function"
    },
    {
      "inputs": [
        {
          "internalType": "uint256",
          "name": "",
          "type": "uint256"
        }
      ],
      "name": "campaigns",
      "outputs": [
        {
          "internalType": "address",
          "name": "creator",
          "type": "address"
        },
        {
          "internalType": "string",
          "name": "title",
          "type": "string"
        },
        {
          "internalType": "uint256",
          "name": "goal",
          "type": "uint256"
        },
        {
          "internalType": "uint256",
          "name": "deadline",
          "type": "uint256"
        },
        {
          "internalType": "uint256",
          "name": "totalRaised",
          "type": "uint256"
        },
        {
          "internalType": "bool",
          "name": "claimed",
          "type": "bool"
        }
      ],
      "stateMutability": "view",
      "type": "function"
    },
    {
      "inputs": [
        {
          "internalType": "uint256",
          "name": "_campaignId",
          "type": "uint256"
        }
      ],
      "name": "claimFunds",
      "outputs": [],
      "stateMutability": "nonpayable",
      "type": "function"
    },
    {
      "inputs": [
        {
          "internalType": "uint256",
          "name": "_campaignId",
          "type": "uint256"
        }
      ],
      "name": "contribute",
      "outputs": [],
      "stateMutability": "payable",
      "type": "function"
    },
    {
      "inputs": [
        {
          "internalType": "uint256",
          "name": "",
          "type": "uint256"
        },
        {
          "internalType": "address",
          "name": "",
          "type": "address"
        }
      ],
      "name": "contributions",
      "outputs": [
        {
          "internalType": "uint256",
          "name": "",
          "type": "uint256"
        }
      ],
      "stateMutability": "view",
      "type": "function"
    },
    {
      "inputs": [
        {
          "internalType": "string",
          "name": "_title",
          "type": "string"
        },
        {
          "internalType": "uint256",
          "name": "_goal",
          "type": "uint256"
        },
        {
          "internalType": "uint256",
          "name": "_durationInSeconds",
          "type": "uint256"
        }
      ],
      "name": "createCampaign",
      "outputs": [],
      "stateMutability": "nonpayable",
      "type": "function"
    },
    {
      "inputs": [],
      "name": "getCampaignCount",
      "outputs": [
        {
          "internalType": "uint256",
          "name": "",
          "type": "uint256"
        }
      ],
      "stateMutability": "view",
      "type": "function"
    },
    {
      "inputs": [
        {
          "internalType": "uint256",
          "name": "_campaignId",
          "type": "uint256"
        },
        {
          "internalType": "address",
          "name": "_contributor",
          "type": "address"
        }
      ],
      "name": "getContribution",
      "outputs": [
        {
          "internalType": "uint256",
          "name": "",
          "type": "uint256"
        }
      ],
      "stateMutability": "view",
      "type": "function"
    },
    {
      "inputs": [
        {
          "internalType": "uint256",
          "name": "_campaignId",
          "type": "uint256"
        }
      ],
      "name": "isCampaignActive",
      "outputs": [
        {
          "internalType": "bool",
          "name": "",
          "type": "bool"
        }
      ],
      "stateMutability": "view",
      "type": "function"
    },
    {
      "inputs": [
        {
          "internalType": "uint256",
          "name": "_campaignId",
          "type": "uint256"
        }
      ],
      "name": "refund",
      "outputs": [],
      "stateMutability": "nonpayable",
      "type": "function"
    }
  ],
  "bytecode": "0x608060405234801561001057600080fd5b50610fe6806100206000396000f3fe6080604052600436106100915760003560e01c80636caa9218116100595780636caa9218146101795780637274e30d1461018e578063c1cbbca7146101a4578063e081dbf9146101b7578063e1e33009146101d757600080fd5b8063141961bc146100965780631b55e338146100d1578063278ecde1146100f35780633020580b146101135780633d891f5914610133575b600080fd5b3480156100a257600080fd5b506100b66100b1366004610bce565b610207565b6040516100c896959493929190610c2d565b60405180910390f35b3480156100dd57600080fd5b506100f16100ec366004610bce565b6102d3565b005b3480156100ff57600080fd5b506100f161010e366004610bce565b610519565b34801561011f57600080fd5b506100f161012e366004610c8e565b610726565b34801561013f57600080fd5b5061016b61014e366004610d52565b600260209081526000928352604080842090915290825290205481565b6040519081526020016100c8565b34801561018557600080fd5b5060005461016b565b34801561019a57600080fd5b5061016b60005481565b6100f16101b2366004610bce565b61092c565b3480156101c357600080fd5b5061016b6101d2366004610d52565b610b3d565b3480156101e357600080fd5b506101f76101f2366004610bce565b610b67565b60405190151581526020016100c8565b6001602081905260009182526040909120805491810180546001600160a01b039093169261023490610d8e565b80601f016020809104026020016040519081016040528092919081815260200182805461026090610d8e565b80156102ad5780601f10610282576101008083540402835291602001916102ad565b820191906000526020600020905b81548152906001019060200180831161029057829003601f168201915b505050506002830154600384015460048501546005909501549394919390925060ff1686565b8060005481106102fe5760405162461bcd60e51b81526004016102f590610dc2565b60405180910390fd5b600082815260016020526040902080546001600160a01b031633146103655760405162461bcd60e51b815260206004820152601c60248201527f4f6e6c792063726561746f722063616e20636c61696d2066756e64730000000060448201526064016102f5565b80600301544210156103895760405162461bcd60e51b81526004016102f590610df9565b8060020154816004015410156103d45760405162461bcd60e51b815260206004820152601060248201526f11dbd85b081b9bdd081c995858da195960821b60448201526064016102f5565b600581015460ff16156104215760405162461bcd60e51b8152602060048201526015602482015274119d5b991cc8185b1c9958591e4818db185a5b5959605a1b60448201526064016102f5565b60058101805460ff19166001179055600481015481546040516000916001600160a01b03169083908381818185875af1925050503d8060008114610481576040519150601f19603f3d011682016040523d82523d6000602084013e610486565b606091505b50509050806104ce5760405162461bcd60e51b81526020600482015260146024820152734661696c656420746f2073656e642066756e647360601b60448201526064016102f5565b82546040518381526001600160a01b039091169086907fa4eb50103b0591feb0bc913f479d92af5eb7ea33e8c397b49bab52ce6af26cb5906020015b60405180910390a35050505050565b80600054811061053b5760405162461bcd60e51b81526004016102f590610dc2565b6000828152600160205260409020600381015442101561056d5760405162461bcd60e51b81526004016102f590610df9565b80600201548160040154106105d55760405162461bcd60e51b815260206004820152602860248201527f43616d706169676e207375636365656465642c206e6f20726566756e647320616044820152677661696c61626c6560c01b60648201526084016102f5565b60008381526002602090815260408083203384529091529020548061064c5760405162461bcd60e51b815260206004820152602760248201527f4e6f20636f6e747269627574696f6e20666f756e6420666f722074686973206360448201526630b6b830b4b3b760c91b60648201526084016102f5565b60008481526002602090815260408083203380855292528083208390555183908381818185875af1925050503d80600081146106a4576040519150601f19603f3d011682016040523d82523d6000602084013e6106a9565b606091505b50509050806106f25760405162461bcd60e51b815260206004820152601560248201527411985a5b1959081d1bc81cd95b99081c99599d5b99605a1b60448201526064016102f5565b604051828152339086907f7a482fdeb6bc9a1376f597068a214a7a39472bb2eff1b8cad21ba04f49ddca1b9060200161050a565b600082116107765760405162461bcd60e51b815260206004820152601e60248201527f476f616c206d7573742062652067726561746572207468616e207a65726f000060448201526064016102f5565b600081116107d15760405162461bcd60e51b815260206004820152602260248201527f4475726174696f6e206d7573742062652067726561746572207468616e207a65604482015261726f60f01b60648201526084016102f5565b600083511161081a5760405162461bcd60e51b81526020600482015260156024820152745469746c652063616e6e6f7420626520656d70747960581b60448201526064016102f5565b60006108268242610e50565b6040805160c08101825233815260208082018881528284018890526060830185905260006080840181905260a084018190528054815260019283905293909320825181546001600160a01b0319166001600160a01b0390911617815592519394509092908201906108979082610eb2565b506040828101516002830155606083015160038301556080830151600483015560a0909201516005909101805460ff191691151591909117905560005490513391907fdc26653af5b99b2da33e2ad69ee6600d9aeccc82b034501db4338309615ca2389061090a90889088908790610f72565b60405180910390a360008054908061092183610f97565b919050555050505050565b80600054811061094e5760405162461bcd60e51b81526004016102f590610dc2565b6000828152600160205260409020600381015442106109af5760405162461bcd60e51b815260206004820152601c60248201527f43616d706169676e20646561646c696e6520686173207061737365640000000060448201526064016102f5565b60003411610a0e5760405162461bcd60e51b815260206004820152602660248201527f436f6e747269627574696f6e206d7573742062652067726561746572207468616044820152656e207a65726f60d01b60648201526084016102f5565b600581015460ff1615610a635760405162461bcd60e51b815260206004820152601860248201527f43616d706169676e20616c726561647920636c61696d6564000000000000000060448201526064016102f5565b8060020154816004015410610aba5760405162461bcd60e51b815260206004820152601d60248201527f43616d706169676e20676f616c20616c7265616479207265616368656400000060448201526064016102f5565b34816004016000828254610ace9190610e50565b9091555050600083815260026020908152604080832033845290915281208054349290610afc908490610e50565b9091555050604051348152339084907f0a4a91237423e0a1766a761c7cb029311d8b95d6b1b81db1b949a70c98b4e08e9060200160405180910390a3505050565b60008281526002602090815260408083206001600160a01b03851684529091529020545b92915050565b6000816000548110610b8b5760405162461bcd60e51b81526004016102f590610dc2565b6000838152600160205260409020600381015442108015610bb3575080600201548160040154105b8015610bc45750600581015460ff16155b9250505b50919050565b600060208284031215610be057600080fd5b5035919050565b6000815180845260005b81811015610c0d57602081850181015186830182015201610bf1565b506000602082860101526020601f19601f83011685010191505092915050565b6001600160a01b038716815260c060208201819052600090610c5190830188610be7565b905085604083015284606083015283608083015282151560a0830152979650505050505050565b634e487b7160e01b600052604160045260246000fd5b600080600060608486031215610ca357600080fd5b833567ffffffffffffffff80821115610cbb57600080fd5b818601915086601f830112610ccf57600080fd5b813581811115610ce157610ce1610c78565b604051601f8201601f19908116603f01168101908382118183101715610d0957610d09610c78565b81604052828152896020848701011115610d2257600080fd5b82602086016020830137600060208483010152809750505050505060208401359150604084013590509250925092565b60008060408385031215610d6557600080fd5b8235915060208301356001600160a01b0381168114610d8357600080fd5b809150509250929050565b600181811c90821680610da257607f821691505b602082108103610bc857634e487b7160e01b600052602260045260246000fd5b60208082526017908201527f43616d706169676e20646f6573206e6f74206578697374000000000000000000604082015260600190565b60208082526021908201527f43616d706169676e20646561646c696e65206e6f7420796574207265616368656040820152601960fa1b606082015260800190565b634e487b7160e01b600052601160045260246000fd5b80820180821115610b6157610b61610e3a565b601f821115610ead57600081815260208120601f850160051c81016020861015610e8a5750805b601f850160051c820191505b81811015610ea957828155600101610e96565b5050505b505050565b815167ffffffffffffffff811115610ecc57610ecc610c78565b610ee081610eda8454610d8e565b84610e63565b602080601f831160018114610f155760008415610efd5750858301515b600019600386901b1c1916600185901b178555610ea9565b600085815260208120601f198616915b82811015610f4457888601518255948401946001909101908401610f25565b5085821015610f625787850151600019600388901b60f8161c191681555b5050505050600190811b01905550565b606081526000610f856060830186610be7565b60208301949094525060400152919050565b600060018201610fa957610fa9610e3a565b506001019056fea26469706673582212201812c173c7276e28d2560095cae9090cd71e9dd8f8d9bafe15296366782894a464736f6c63430008140033",
  "linkReferences": {},
  "deployedLinkReferences": {}
}